{
  "_format": "hh-sol-artifact-1",
  "contractName": "FinalityVerifierV2",
  "sourceName": "contracts/FinalityVerifierV2.sol",
  "abi": [
    {
      "inputs": [
        {
          "internalType": "address",
          "name": "target",
          "type": "address"
        }
      ],
      "name": "AddressEmptyCode",
      "type": "error"
    },
    {
      "inputs": [],
      "name": "ECDSAInvalidSignature",
      "type": "error"
    },
    {
      "inputs": [
        {
          "internalType": "uint256",
          "name": "length",
          "type": "uint256"
        }
      ],
      "name": "ECDSAInvalidSignatureLength",
      "type": "error"
    },
    {
      "inputs": [
        {
          "internalType": "bytes32",
          "name": "s",
          "type": "bytes32"
        }
      ],
      "name": "ECDSAInvalidSignatureS",
      "type": "error"
    },
    {
      "inputs": [
        {
          "internalType": "address",
          "name": "implementation",
          "type": "address"
        }
      ],
      "name": "ERC1967InvalidImplementation",
      "type": "error"
    },
    {
      "inputs": [],
      "name": "ERC1967NonPayable",
      "type": "error"
    },
    {
      "inputs": [],
      "name": "FailedCall",
      "type": "error"
    },
    {
      "inputs": [],
      "name": "InsufficientSignatures",
      "type": "error"
    },
    {
      "inputs": [],
      "name": "InsufficientStake",
      "type": "error"
    },
    {
      "inputs": [],
      "name": "InvalidInitialization",
      "type": "error"
    },
    {
      "inputs": [],
      "name": "InvalidMerkleProof",
      "type": "error"
    },
    {
      "inputs": [],
      "name": "InvalidSignature",
      "type": "error"
    },
    {
      "inputs": [],
      "name": "NotInitializing",
      "type": "error"
    },
    {
      "inputs": [],
      "name": "OracleNotActive",
      "type": "error"
    },
    {
      "inputs": [
        {
          "internalType": "address",
          "name": "owner",
          "type": "address"
        }
      ],
      "name": "OwnableInvalidOwner",
      "type": "error"
    },
    {
      "inputs": [
        {
          "internalType": "address",
          "name": "account",
          "type": "address"
        }
      ],
      "name": "OwnableUnauthorizedAccount",
      "type": "error"
    },
    {
      "inputs": [],
      "name": "ProofAlreadyExists",
      "type": "error"
    },
    {
      "inputs": [],
      "name": "UUPSUnauthorizedCallContext",
      "type": "error"
    },
    {
      "inputs": [
        {
          "internalType": "bytes32",
          "name": "slot",
          "type": "bytes32"
        }
      ],
      "name": "UUPSUnsupportedProxiableUUID",
      "type": "error"
    },
    {
      "anonymous": false,
      "inputs": [
        {
          "indexed": false,
          "internalType": "uint64",
          "name": "version",
          "type": "uint64"
        }
      ],
      "name": "Initialized",
      "type": "event"
    },
    {
      "anonymous": false,
      "inputs": [
        {
          "indexed": true,
          "internalType": "address",
          "name": "oracle",
          "type": "address"
        },
        {
          "indexed": false,
          "internalType": "uint256",
          "name": "stake",
          "type": "uint256"
        }
      ],
      "name": "OracleAdded",
      "type": "event"
    },
    {
      "anonymous": false,
      "inputs": [
        {
          "indexed": true,
          "internalType": "address",
          "name": "oracle",
          "type": "address"
        },
        {
          "indexed": false,
          "internalType": "uint256",
          "name": "slashedAmount",
          "type": "uint256"
        }
      ],
      "name": "OracleRemoved",
      "type": "event"
    },
    {
      "anonymous": false,
      "inputs": [
        {
          "indexed": true,
          "internalType": "address",
          "name": "previousOwner",
          "type": "address"
        },
        {
          "indexed": true,
          "internalType": "address",
          "name": "newOwner",
          "type": "address"
        }
      ],
      "name": "OwnershipTransferred",
      "type": "event"
    },
    {
      "anonymous": false,
      "inputs": [
        {
          "indexed": true,
          "internalType": "bytes32",
          "name": "txHash",
          "type": "bytes32"
        },
        {
          "indexed": true,
          "internalType": "address",
          "name": "oracle",
          "type": "address"
        },
        {
          "indexed": false,
          "internalType": "uint256",
          "name": "timestamp",
          "type": "uint256"
        }
      ],
      "name": "ProofSubmitted",
      "type": "event"
    },
    {
      "anonymous": false,
      "inputs": [
        {
          "indexed": true,
          "internalType": "bytes32",
          "name": "txHash",
          "type": "bytes32"
        },
        {
          "indexed": false,
          "internalType": "bool",
          "name": "isValid",
          "type": "bool"
        }
      ],
      "name": "ProofVerified",
      "type": "event"
    },
    {
      "anonymous": false,
      "inputs": [
        {
          "indexed": true,
          "internalType": "address",
          "name": "oracle",
          "type": "address"
        },
        {
          "indexed": false,
          "internalType": "uint256",
          "name": "amount",
          "type": "uint256"
        },
        {
          "indexed": false,
          "internalType": "string",
          "name": "reason",
          "type": "string"
        }
      ],
      "name": "StakeSlashed",
      "type": "event"
    },
    {
      "anonymous": false,
      "inputs": [
        {
          "indexed": true,
          "internalType": "address",
          "name": "implementation",
          "type": "address"
        }
      ],
      "name": "Upgraded",
      "type": "event"
    },
    {
      "inputs": [],
      "name": "UPGRADE_INTERFACE_VERSION",
      "outputs": [
        {
          "internalType": "string",
          "name": "",
          "type": "string"
        }
      ],
      "stateMutability": "view",
      "type": "function"
    },
    {
      "inputs": [
        {
          "internalType": "uint256",
          "name": "",
          "type": "uint256"
        }
      ],
      "name": "activeOracles",
      "outputs": [
        {
          "internalType": "address",
          "name": "",
          "type": "address"
        }
      ],
      "stateMutability": "view",
      "type": "function"
    },
    {
      "inputs": [
        {
          "internalType": "address",
          "name": "_oracle",
          "type": "address"
        },
        {
          "internalType": "uint256",
          "name": "_stake",
          "type": "uint256"
        }
      ],
      "name": "addOracle",
      "outputs": [],
      "stateMutability": "nonpayable",
      "type": "function"
    },
    {
      "inputs": [
        {
          "internalType": "bytes32",
          "name": "",
          "type": "bytes32"
        }
      ],
      "name": "finalityProofs",
      "outputs": [
        {
          "internalType": "bytes32",
          "name": "txHash",
          "type": "bytes32"
        },
        {
          "internalType": "uint256",
          "name": "timestamp",
          "type": "uint256"
        },
        {
          "internalType": "uint8",
          "name": "status",
          "type": "uint8"
        },
        {
          "internalType": "uint256",
          "name": "slaTarget",
          "type": "uint256"
        },
        {
          "internalType": "uint256",
          "name": "chainId",
          "type": "uint256"
        },
        {
          "internalType": "uint256",
          "name": "confirmations",
          "type": "uint256"
        },
        {
          "internalType": "bytes",
          "name": "signature",
          "type": "bytes"
        }
      ],
      "stateMutability": "view",
      "type": "function"
    },
    {
      "inputs": [],
      "name": "getActiveOracles",
      "outputs": [
        {
          "internalType": "address[]",
          "name": "",
          "type": "address[]"
        }
      ],
      "stateMutability": "view",
      "type": "function"
    },
    {
      "inputs": [
        {
          "internalType": "bytes32",
          "name": "_txHash",
          "type": "bytes32"
        }
      ],
      "name": "getFinalityProof",
      "outputs": [
        {
          "components": [
            {
              "internalType": "bytes32",
              "name": "txHash",
              "type": "bytes32"
            },
            {
              "internalType": "uint256",
              "name": "timestamp",
              "type": "uint256"
            },
            {
              "internalType": "uint8",
              "name": "status",
              "type": "uint8"
            },
            {
              "internalType": "uint256",
              "name": "slaTarget",
              "type": "uint256"
            },
            {
              "internalType": "uint256",
              "name": "chainId",
              "type": "uint256"
            },
            {
              "internalType": "uint256",
              "name": "confirmations",
              "type": "uint256"
            },
            {
              "internalType": "bytes32[]",
              "name": "merkleProof",
              "type": "bytes32[]"
            },
            {
              "internalType": "bytes",
              "name": "signature",
              "type": "bytes"
            }
          ],
          "internalType": "struct FinalityVerifierV2.FinalityProof",
          "name": "",
          "type": "tuple"
        }
      ],
      "stateMutability": "view",
      "type": "function"
    },
    {
      "inputs": [
        {
          "internalType": "address",
          "name": "_oracle",
          "type": "address"
        }
      ],
      "name": "getOracleInfo",
      "outputs": [
        {
          "components": [
            {
              "internalType": "address",
              "name": "oracleAddress",
              "type": "address"
            },
            {
              "internalType": "bool",
              "name": "isActive",
              "type": "bool"
            },
            {
              "internalType": "uint256",
              "name": "stake",
              "type": "uint256"
            },
            {
              "internalType": "uint256",
              "name": "reputation",
              "type": "uint256"
            }
          ],
          "internalType": "struct FinalityVerifierV2.Oracle",
          "name": "",
          "type": "tuple"
        }
      ],
      "stateMutability": "view",
      "type": "function"
    },
    {
      "inputs": [
        {
          "internalType": "address",
          "name": "initialOwner",
          "type": "address"
        },
        {
          "internalType": "uint256",
          "name": "_requiredSignatures",
          "type": "uint256"
        },
        {
          "internalType": "uint256",
          "name": "_maxOracles",
          "type": "uint256"
        },
        {
          "internalType": "uint256",
          "name": "_minStake",
          "type": "uint256"
        },
        {
          "internalType": "uint256",
          "name": "_slashingAmount",
          "type": "uint256"
        }
      ],
      "name": "initialize",
      "outputs": [],
      "stateMutability": "nonpayable",
      "type": "function"
    },
    {
      "inputs": [],
      "name": "maxOracles",
      "outputs": [
        {
          "internalType": "uint256",
          "name": "",
          "type": "uint256"
        }
      ],
      "stateMutability": "view",
      "type": "function"
    },
    {
      "inputs": [],
      "name": "minStake",
      "outputs": [
        {
          "internalType": "uint256",
          "name": "",
          "type": "uint256"
        }
      ],
      "stateMutability": "view",
      "type": "function"
    },
    {
      "inputs": [
        {
          "internalType": "address",
          "name": "",
          "type": "address"
        }
      ],
      "name": "oracles",
      "outputs": [
        {
          "internalType": "address",
          "name": "oracleAddress",
          "type": "address"
        },
        {
          "internalType": "bool",
          "name": "isActive",
          "type": "bool"
        },
        {
          "internalType": "uint256",
          "name": "stake",
          "type": "uint256"
        },
        {
          "internalType": "uint256",
          "name": "reputation",
          "type": "uint256"
        }
      ],
      "stateMutability": "view",
      "type": "function"
    },
    {
      "inputs": [],
      "name": "owner",
      "outputs": [
        {
          "internalType": "address",
          "name": "",
          "type": "address"
        }
      ],
      "stateMutability": "view",
      "type": "function"
    },
    {
      "inputs": [],
      "name": "proxiableUUID",
      "outputs": [
        {
          "internalType": "bytes32",
          "name": "",
          "type": "bytes32"
        }
      ],
      "stateMutability": "view",
      "type": "function"
    },
    {
      "inputs": [
        {
          "internalType": "address",
          "name": "_oracle",
          "type": "address"
        }
      ],
      "name": "removeOracle",
      "outputs": [],
      "stateMutability": "nonpayable",
      "type": "function"
    },
    {
      "inputs": [],
      "name": "renounceOwnership",
      "outputs": [],
      "stateMutability": "nonpayable",
      "type": "function"
    },
    {
      "inputs": [],
      "name": "requiredSignatures",
      "outputs": [
        {
          "internalType": "uint256",
          "name": "",
          "type": "uint256"
        }
      ],
      "stateMutability": "view",
      "type": "function"
    },
    {
      "inputs": [],
      "name": "slashingAmount",
      "outputs": [
        {
          "internalType": "uint256",
          "name": "",
          "type": "uint256"
        }
      ],
      "stateMutability": "view",
      "type": "function"
    },
    {
      "inputs": [
        {
          "internalType": "bytes32",
          "name": "_txHash",
          "type": "bytes32"
        },
        {
          "internalType": "uint256",
          "name": "_timestamp",
          "type": "uint256"
        },
        {
          "internalType": "uint8",
          "name": "_status",
          "type": "uint8"
        },
        {
          "internalType": "uint256",
          "name": "_slaTarget",
          "type": "uint256"
        },
        {
          "internalType": "uint256",
          "name": "_chainId",
          "type": "uint256"
        },
        {
          "internalType": "uint256",
          "name": "_confirmations",
          "type": "uint256"
        },
        {
          "internalType": "bytes32[]",
          "name": "_merkleProof",
          "type": "bytes32[]"
        },
        {
          "internalType": "bytes",
          "name": "_signature",
          "type": "bytes"
        }
      ],
      "name": "submitFinalityProof",
      "outputs": [],
      "stateMutability": "nonpayable",
      "type": "function"
    },
    {
      "inputs": [
        {
          "internalType": "address",
          "name": "newOwner",
          "type": "address"
        }
      ],
      "name": "transferOwnership",
      "outputs": [],
      "stateMutability": "nonpayable",
      "type": "function"
    },
    {
      "inputs": [
        {
          "internalType": "address",
          "name": "newImplementation",
          "type": "address"
        },
        {
          "internalType": "bytes",
          "name": "data",
          "type": "bytes"
        }
      ],
      "name": "upgradeToAndCall",
      "outputs": [],
      "stateMutability": "payable",
      "type": "function"
    },
    {
      "inputs": [
        {
          "internalType": "bytes32",
          "name": "",
          "type": "bytes32"
        }
      ],
      "name": "verifiedTransactions",
      "outputs": [
        {
          "internalType": "bool",
          "name": "",
          "type": "bool"
        }
      ],
      "stateMutability": "view",
      "type": "function"
    },
    {
      "inputs": [
        {
          "internalType": "bytes32",
          "name": "_txHash",
          "type": "bytes32"
        }
      ],
      "name": "verifyFinality",
      "outputs": [
        {
          "internalType": "bool",
          "name": "",
          "type": "bool"
        }
      ],
      "stateMutability": "view",
      "type": "function"
    },
    {
      "inputs": [],
      "name": "version",
      "outputs": [
        {
          "internalType": "string",
          "name": "",
          "type": "string"
        }
      ],
      "stateMutability": "pure",
      "type": "function"
    }
  ],
  "bytecode": "0x60a0604052346200003657620000146200003b565b604051612860620000938239608051818181611fbd01526121b2015261286090f35b600080fd5b6200004562000082565b565b6200005d9062000060906001600160a01b031682565b90565b6001600160a01b031690565b6200005d9062000047565b6200005d906200006c565b6200008d3062000077565b60805256fe6080604052600436101561001257600080fd5b60003560e01c806314dfe9121461018257806315067b0c1461017d578063375b3c0a146101785780634f1ef2861461017357806352d1902d1461016e57806354fd4d50146101695780635e0e1c67146101645780636ccaa9461461015f578063715018a61461015a5780638d068043146101555780638da5cb5b1461015057806391d661491461014b578063ad3cb1cc14610146578063addd509914610141578063b70447371461013c578063b840641214610137578063bfdb6b0414610132578063c0d2c49d1461012d578063dfb1dc0a14610128578063f2fde38b14610123578063f423e06b1461011e578063f92ad219146101195763fdc85fc40361018757610d74565b610d58565b610cec565b610c07565b610bec565b610ba4565b610b71565b610b00565b6109cc565b61098f565b61088a565b610814565b6107d6565b6107bb565b610797565b610770565b6106d2565b6106ab565b61067f565b610666565b610567565b610506565b610261565b600080fd5b805b0361018757565b905035906101a28261018c565b565b90602082820312610187576101b891610195565b90565b634e487b7160e01b600052603260045260246000fd5b80548210156101f4576101eb600191600052602060002090565b91020190600090565b6101bb565b6101b8916008021c5b73ffffffffffffffffffffffffffffffffffffffff1690565b906101b891546101f9565b6003548110156101875761023e6101b89160036101d1565b9061021b565b61024d90610202565b9052565b6020810192916101a29190610244565b346101875761028861027c6102773660046101a4565b610226565b60405191829182610251565b0390f35b905b600052602052604060002090565b6101b89081565b6101b8905461029c565b6101b8905b60ff1690565b6101b890546102ad565b634e487b7160e01b600052602260045260246000fd5b90600160028304921680156102f8575b60208310146102f357565b6102c2565b91607f16916102e8565b8054600093929161031f610315836102d8565b8085529360200190565b9160018116908115610371575060011461033857505050565b61034b9192939450600052602060002090565b916000925b81841061035d5750500190565b805484840152602090930192600101610350565b92949550505060ff1916825215156020020190565b906101b891610302565b634e487b7160e01b600052604160045260246000fd5b90601f01601f1916810190811067ffffffffffffffff8211176103c857604052565b610390565b906101a26103e7926103de60405190565b93848092610386565b03836103a6565b6103f990600161028c565b610402816102a3565b9161040f600183016102a3565b9161041c600282016102b8565b91610429600383016102a3565b91610436600482016102a3565b916101b86007610448600585016102a3565b93016103cd565b60005b8381106104625750506000910152565b8181015183820152602001610452565b61049361049c6020936104a693610487815190565b80835293849260200190565b9586910161044f565b601f01601f191690565b0190565b93946104eb6101b898966104e46104f9966104da6104f2969b976104d360e08c019d60008d0152565b60208b0152565b60ff166040890152565b6060870152565b6080850152565b60a0830152565b60c0818403910152610472565b346101875761028861052161051c3660046101a4565b6103ee565b9361053197959793919360405190565b978897886104aa565b600091031261018757565b6101b8916008021c81565b906101b89154610545565b6101b860006006610550565b346101875761057736600461053a565b61028861058261055b565b6040515b9182918290815260200190565b61018e81610202565b905035906101a282610593565b906101a26105b660405190565b92836103a6565b67ffffffffffffffff81116103c857602090601f01601f19160190565b90826000939282370152565b909291926105fb6105f6826105bd565b6105a9565b9381855281830111610187576101a29160208501906105da565b9080601f83011215610187578160206101b8933591016105e6565b91909160408184031261018757610647838261059c565b92602082013567ffffffffffffffff8111610187576101b89201610615565b61067a610674366004610630565b90610dac565b604051005b346101875761068f36600461053a565b610288610582610e06565b60208082526101b892910190610472565b34610187576106bb36600461053a565b6102886106c6610e4b565b6040519182918261069a565b34610187576102886106ed6106e83660046101a4565b610fa6565b60405191829182901515815260200190565b906104a681602093610244565b9061072c61072561071b845190565b8084529260200190565b9260200190565b9060005b81811061073d5750505090565b90919261075761075060019286516106ff565b9460200190565b929101610730565b60208082526101b89291019061070c565b346101875761078036600461053a565b61028861078b61109c565b6040519182918261075f565b34610187576107a736600461053a565b61067a6110de565b6101b860006004610550565b34610187576107cb36600461053a565b6102886105826107af565b34610187576107e636600461053a565b61028861027c6110e6565b9190604083820312610187576101b890602061080d828661059c565b9401610195565b346101875761067a6108273660046107f1565b906113f5565b9061083a6105f6836105bd565b918252565b610849600561082d565b7f352e302e30000000000000000000000000000000000000000000000000000000602082015290565b6101b861083f565b6101b8610872565b6101b861087a565b346101875761089a36600461053a565b6102886106c6610882565b90602082820312610187576101b89161059c565b6102026101b86101b89273ffffffffffffffffffffffffffffffffffffffff1690565b6101b8906108b9565b6101b8906108dc565b9061028e906108e5565b6101b890610202565b6101b890546108f8565b6101b89060a01c6102b2565b6101b8905461090b565b61092c9060006108ee565b9061093682610901565b9161094081610917565b916101b86002610952600185016102a3565b93016102a3565b61098b6101a29461098460609498979561097b608086019a6000870190610244565b15156020850152565b6040830152565b0152565b34610187576102886109aa6109a53660046108a5565b610921565b906109b794929460405190565b94859485610959565b6101b860006007610550565b34610187576109dc36600461053a565b6102886105826109c0565b60ff811661018e565b905035906101a2826109e7565b909182601f830112156101875781359167ffffffffffffffff831161018757602001926020830284011161018757565b909182601f830112156101875781359167ffffffffffffffff831161018757602001926001830284011161018757565b90916101008284031261018757610a748383610195565b92610a828160208501610195565b92610a9082604083016109f0565b92610a9e8360608401610195565b92610aac8160808501610195565b92610aba8260a08301610195565b9260c082013567ffffffffffffffff81116101875783610adb9184016109fd565b92909360e082013567ffffffffffffffff811161018757610afc9201610a2d565b9091565b346101875761067a610b13366004610a5d565b98979097969196959295949394611812565b906060806101a293610b3f60008201516000860190610244565b602081810151151590850152610b5a60408201516040860152565b0151910152565b6080810192916101a29190610b25565b3461018757610288610b8c610b873660046108a5565b611acf565b60405191829182610b61565b6101b860006005610550565b3461018757610bb436600461053a565b610288610582610b98565b6101b8916008021c6102b2565b906101b89154610bbf565b6000610be76101b892600261028c565b610bcc565b34610187576102886106ed610c023660046101a4565b610bd7565b346101875761067a610c1a3660046108a5565b611b5e565b90610c2e61072561071b845190565b9060005b818110610c3f5750505090565b909192610c556107506001928651815260200190565b929101610c32565b805182526101b89160e0610cca6101008301610c7e60208601516020860152565b60408581015160ff1690850152610c9a60608601516060860152565b610ca960808601516080860152565b610cb860a086015160a0860152565b60c085015184820360c0860152610c1f565b9201519060e0818403910152610472565b60208082526101b892910190610c5d565b3461018757610288610d07610d023660046101a4565b611bac565b60405191829182610cdb565b919060a08382031261018757610d29818461059c565b92610d378260208301610195565b926101b8610d488460408501610195565b93608061080d8260608701610195565b346101875761067a610d6b366004610d13565b93929092611e08565b346101875761067a610d873660046108a5565b611fa9565b906101a291610d99611fb2565b906101a291610da78161204b565b612081565b906101a291610d8c565b6101b890610dc26121a1565b610dfd565b6101b86101b86101b89290565b6101b87f360894a13ba1a3210667c828492db98dca3e2076cc3735a920a3ca505d382bbc610dc7565b506101b8610dd4565b6101b86000610db6565b610e1a600661082d565b7f76322e302e300000000000000000000000000000000000000000000000000000602082015290565b6101b8610e10565b6101b8610e43565b90610e6e610e6261071b845490565b92600052602060002090565b9060005b818110610e7f5750505090565b909192610ea3610e9c600192610e94876102a3565b815260200190565b9460010190565b929101610e72565b906101b891610e53565b906101a26103e792610ec660405190565b93848092610eab565b6101b86101006105a9565b906101a2610f896007610eeb610ecf565b94610efc610ef8826102a3565b8752565b610f12610f0b600183016102a3565b6020880152565b610f2b610f21600283016102b8565b60ff166040880152565b610f41610f3a600383016102a3565b6060880152565b610f57610f50600483016102a3565b6080880152565b610f6d610f66600583016102a3565b60a0880152565b610f83610f7c60068301610eb5565b60c0880152565b016103cd565b60e0840152565b6101b890610eda565b6102b26101b86101b89290565b610fbd610fc291610fb5600090565b50600161028c565b610f90565b8051610fd8610fd46101b86000610dc7565b9190565b1461102757604081015160ff16610ff9610ff26001610f99565b9160ff1690565b149081611004575090565b9050611022610fd46101b8606061101c60a086015190565b94015190565b101590565b50600090565b9061103c610e6261071b845490565b9060005b81811061104d5750505090565b909192611067610e9c60019261106287610901565b6106ff565b929101611040565b906101b89161102d565b906101a26103e79261108a60405190565b9384809261106f565b6101b890611079565b6101b86003611093565b6110ae6121dd565b6101a26110cc565b6102026101b86101b89290565b6101b8906110b6565b6101a26110d960006110c3565b612237565b6101a26110a6565b6101b860007f9016d09d72d40fdae2fd8ceac6b6234c7706214fd39c1cd1e609a0528c1993005b01610901565b906101a2916111206121dd565b6112a9565b6101b860806105a9565b9061024d90610202565b6101b89051610202565b9073ffffffffffffffffffffffffffffffffffffffff905b9181191691161790565b906111756101b861117c926108e5565b8254611143565b9055565b9074ff00000000000000000000000000000000000000009060a01b61115b565b906111b06101b861117c92151590565b8254611180565b906000199061115b565b906111d16101b861117c92610dc7565b82546111b7565b6101a29160029061122590606090611209856111fc6111f684611139565b82611165565b60208301511515906111a0565b611220611217604083015190565b600187016111c1565b015190565b91016111c1565b906101a2916111d8565b9190600861115b91029161125d73ffffffffffffffffffffffffffffffffffffffff841b90565b921b90565b91906112736101b861117c936108e5565b908354611236565b90815491680100000000000000008310156103c857826112a39160016101a2950181556101d1565b90611262565b6112b66101b860066102a3565b82106113ca576003546112cf610fd46101b860056102a3565b1015611367576113626113587f27e42c8c186bae4ba00900be68f86e7115c0845941300729a6bf8e65f4eddbaf92611348611308611125565b611312838261112f565b60016020820152611324876040830152565b6113386113316064610dc7565b6060830152565b6113438360006108ee565b61122c565b61135381600361127b565b6108e5565b9261058660405190565b0390a2565b6040517f08c379a000000000000000000000000000000000000000000000000000000000815260206004820152601360248201527f4d6178206f7261636c65732072656163686564000000000000000000000000006044820152606490fd5b0390fd5b6040517ff1bc94d2000000000000000000000000000000000000000000000000000000008152600490fd5b906101a291611113565b61024d9060ff1660f81b90565b01918252565b0180926113ff565b6101b89136916105e6565b67ffffffffffffffff81116103c85760208091020190565b9092919261144d6105f682611425565b938185526020808601920283019281841161018757915b8383106114715750505050565b6020809161147f8486610195565b815201920191611464565b6101b891369161143d565b906111d16101b861117c9290565b9060ff9061115b565b6102b26101b86101b89260ff1690565b906114cc6101b861117c926114ac565b82546114a3565b634e487b7160e01b600052601160045260246000fd5b9160001960089290920291821b911b61115b565b919061150c6101b861117c9390565b9083546114e9565b6101a2916000916114fd565b81811061152b575050565b806115396000600193611514565b01611520565b91909182821061154e57505050565b6101a292916115639091600052602060002090565b9182019101611520565b906801000000000000000081116103c8578161158a6101a2935490565b9082815561153f565b81519167ffffffffffffffff83116103c8576115be610e626001926115b8868661156d565b60200190565b92049160005b8381106115d15750505050565b60019060206115e16101b8865190565b94019381840155016115c4565b906101a291611593565b919061150c6101b861117c93610dc7565b6101a2916000916115f8565b818110611620575050565b8061162e6000600193611609565b01611615565b9190601f811161164357505050565b6116556101a293600052602060002090565b906020601f840181900483019310611677575b6020601f909101040190611615565b9091508190611668565b9061168a815190565b9067ffffffffffffffff82116103c8576116ae826116a885546102d8565b85611634565b602090601f83116001146116e95761117c9291600091836116de575b5050600019600883021c1916906002021790565b0151905038806116ca565b601f198316916116fe85600052602060002090565b9260005b81811061173c57509160029391856001969410611723575b50505002019055565b01516000196008601f8516021c1916905538808061171a565b91936020600181928787015181550195019201611702565b906101a291611681565b600761180160e06101a29461177d611777600083015190565b86611495565b61178b611217602083015190565b6117a561179c604083015160ff1690565b600287016114bc565b6117bc6117b3606083015190565b600387016111c1565b6117d36117ca608083015190565b600487016111c1565b6117ea6117e160a083015190565b600587016111c1565b6112206117f860c083015190565b600687016115ee565b9101611754565b906101a29161175e565b9795939098949196926000976118396118358a61182f33826108ee565b01610917565b1590565b611a1a576118528961184c8c600161028c565b016102a3565b611861610fd46101b88c610dc7565b036119ef5761190f6118ff826118bd8e8e6118b18a8a8a61188160405190565b9788966020880196876104a69461140c600160209998959661140c8b8099611412828961140c829b61140c9d9052565b908103825203826103a6565b6118cf6118c8825190565b9160200190565b207f19457468657265756d205369676e6564204d6573736167653a0a333200000000600052601c52603c60002090565b611909898b61141a565b906122a8565b61192161191b33610202565b91610202565b036119c4578961192f610ecf565b998a015261193e8b60208b0152565b60ff1660408901526060880152608087015260a086015261195e9161148a565b60c084015261196c9161141a565b60e082015261197c82600161028c565b9061198691611808565b61198f336108e5565b9161199960405190565b9081527f8777dfc174fae327a7a3f54e7cf98db7c33a44f3cca81b9bcbc2094ee331e66890602090a3565b6040517f8baa579f000000000000000000000000000000000000000000000000000000008152600490fd5b6040517fb8cdb9bd000000000000000000000000000000000000000000000000000000008152600490fd5b6040517f4db6f8b9000000000000000000000000000000000000000000000000000000008152600490fd5b611a4d611125565b60008082526020820181905260408201819052606082015290565b6101b8611a45565b906101a2611abf6002611a81611125565b94611a94611a8e82610901565b8761112f565b611aa9611aa082610917565b15156020880152565b61184c611ab8600183016102a3565b6040880152565b6060840152565b6101b890611a70565b611ae66101b891611ade611a68565b5060006108ee565b611ac6565b6101a290611af76121dd565b611b0160006110c3565b611b0a81610202565b611b1383610202565b14611b2257506101a290612237565b6113c690611b2f60405190565b9182917f1e4fbdf700000000000000000000000000000000000000000000000000000000835260048301610251565b6101a290611aeb565b611b6f610ecf565b906000825260208080808080808089016000815201600081520160008152016000815201600081520160608152016060905250565b6101b8611b67565b610fbd6101b891610fb5611ba4565b6101b89060401c6102b2565b6101b89054611bbb565b6101b8905b67ffffffffffffffff1690565b6101b89054611bd1565b611bd66101b86101b89290565b9067ffffffffffffffff9061115b565b611bd66101b86101b89267ffffffffffffffff1690565b90611c316101b861117c92611c0a565b8254611bfa565b9068ff00000000000000009060401b61115b565b90611c5c6101b861117c92151590565b8254611c38565b61024d90611bed565b6020810192916101a29190611c63565b929092611c876122be565b948592611c9f611c9961183586611bc7565b94611be3565b94600096611cac88611bed565b67ffffffffffffffff88161480611dc4575b600197611cdb611ccd8a611bed565b9167ffffffffffffffff1690565b149081611da0575b155b9081611d97575b50611d6c57611d159486611d0c8a611d038b611bed565b9c019b8c611c21565b611d5d57611dcb565b611d1e57505050565b611d4c611d58927fc7f505b2f371ae2175ee4913f4499e1f2633a7b5936321eed1cdaeb6115181d294611c4c565b60405191829182611c6c565b0390a1565b611d67888b611c4c565b611dcb565b6040517ff92ee8a9000000000000000000000000000000000000000000000000000000008152600490fd5b15905038611cec565b9050611ce5611dae306108e5565b3b611dbb610fd48c610dc7565b14919050611ce3565b5085611cbe565b611e0192611df36101a2969593611de4611dfa946122db565b611dec6122ec565b60046111c1565b60056111c1565b60066111c1565b60076111c1565b906101a294939291611c7c565b6101a290611e216121dd565b611e82565b91908203918211611e3357565b6114d3565b634e487b7160e01b600052603160045260246000fd5b6101a291600091611262565b80548015611e7d576000190190611e7a611e7483836101d1565b90611e4e565b55565b611e38565b600090611e966118358361182f84826108ee565b611a1a57611eaf8280611ea984826108ee565b016111a0565b611eb882610dc7565b6003611ec56101b8825490565b821015611f7057611ed961023e83836101d1565b611ee561191b85610202565b14611ef35750600101611eb8565b611f6a600161184c857fe4eafb15d18a41a51c407537f6355bba3e8138ec56160c5fae217f0c6451dc199697611f65611f60876101b86113629a6112a3611f5961023e611f53611f446113589f5490565b611f4d8e610dc7565b90611e26565b866101d1565b91846101d1565b611e5a565b6108ee565b936108e5565b505090611362611358611f6a600161184c867fe4eafb15d18a41a51c407537f6355bba3e8138ec56160c5fae217f0c6451dc19966108ee565b6101a290611e15565b611fbb306108e5565b7f000000000000000000000000000000000000000000000000000000000000000090611fe961191b83610202565b14908115612024575b50611ff957565b6040517fe07c8dba000000000000000000000000000000000000000000000000000000008152600490fd5b905061203a61191b6120346122f4565b92610202565b141538611ff2565b506101a26121dd565b6101a290612042565b905051906101a28261018c565b90602082820312610187576101b891612054565b6040513d6000823e3d90fd5b909161208f611353836108e5565b92602061209b60405190565b7f52d1902d00000000000000000000000000000000000000000000000000000000815294859060049082905afa60009481612170575b50612112576113c6836120e360405190565b9182917f4c9c8ce300000000000000000000000000000000000000000000000000000000835260048301610251565b909161211f6101b8610dd4565b8403612130576101a2929350612304565b6113c68461213d60405190565b9182917faa1d49a40000000000000000000000000000000000000000000000000000000083526004830190815260200190565b61219391955060203d60201161219a575b61218b81836103a6565b810190612061565b93386120d1565b503d612181565b6121aa306108e5565b6121d661191b7f0000000000000000000000000000000000000000000000000000000000000000610202565b03611ff957565b6121e56110e6565b33906121f361191b83610202565b036121fb5750565b6113c69061220860405190565b9182917f118cdaa700000000000000000000000000000000000000000000000000000000835260048301610251565b6122776122717f9016d09d72d40fdae2fd8ceac6b6234c7706214fd39c1cd1e609a0528c1993006113538461226b83610901565b92611165565b916108e5565b907f8be0079c531659141344cd1fd0a4f28419497f9722a3daafe3b4186f6b6457e06122a260405190565b600090a3565b6101b8916122b591612370565b90929192612410565b6101b861254d565b6101a2906122d2612555565b6101a29061259d565b6101a2906122c6565b6101a2612555565b6101a26122e4565b6101b8600061110d6101b8610dd4565b9061230e826125a6565b612317826108e5565b7fbc7cd75a20ee27fd9adebab32041f755214dbc6bffa90cc0225b39da2e5c2d3b61234160405190565b600090a28051612354610fd46000610dc7565b1115612366576123639161263a565b50565b50506101a26125de565b9060009161237c825190565b612389610fd46041610dc7565b036123b3576123ac92506020820151906060604084015193015160001a9061268a565b9192909190565b5090506123d06123cb6123c660006110c3565b925190565b610dc7565b909160029190565b634e487b7160e01b600052602160045260246000fd5b600411156123f857565b6123d8565b906101a2826123ee565b6101b890610dc7565b61241a60006123fd565b612423826123fd565b0361242c575050565b61243660016123fd565b61243f826123fd565b0361246f576040517ff645eedf000000000000000000000000000000000000000000000000000000008152600490fd5b61247960026123fd565b612482826123fd565b036124c9576113c661249383612407565b6040519182917ffce698f70000000000000000000000000000000000000000000000000000000083526004830190815260200190565b6124dc6124d660036123fd565b916123fd565b146124e45750565b6113c6906124f160405190565b9182917fd78bce0c0000000000000000000000000000000000000000000000000000000083526004830190815260200190565b6101b87ff0c57e16840df040f15088dc2f81fe391c3923bec73e23a9662efc9c229c6a00610dc7565b6101b8612524565b612560611835612754565b61256657565b6040517fd7e6bcf8000000000000000000000000000000000000000000000000000000008152600490fd5b6101a290611af7612555565b6101a290612591565b803b6125b5610fd46000610dc7565b146125d1576101a29060006125cb6101b8610dd4565b01611165565b6113c6906120e360405190565b6125e86000610dc7565b34116125f057565b6040517fb398979f000000000000000000000000000000000000000000000000000000008152600490fd5b3d156126355761262a3d61082d565b903d6000602084013e565b606090565b6000806101b893612649606090565b50602081519101845af461265b61261b565b91612767565b61098b6101a294610984606094989795612680608086019a6000870152565b60ff166020850152565b909161269584612407565b6126c1610fd47f7fffffffffffffffffffffffffffffff5d576e7357a4501ddfe92f46681b20a0610dc7565b1161274057906126e3602094600094936126da60405190565b94859485612661565b838052039060015afa1561273b57600051600091612700836110c3565b61270981610202565b61271284610202565b14612727575061272183610dc7565b91929190565b91509161273390610dc7565b909160019190565b612075565b50505061274d60006110c3565b9160039190565b6101b860006127616122be565b01611bc7565b9061277257506127e2565b8151612781610fd46000610dc7565b14806127cc575b612790575090565b6113c69061279d60405190565b9182917f9996b31500000000000000000000000000000000000000000000000000000000835260048301610251565b50803b6127dc610fd46000610dc7565b14612788565b80516127f1610fd46000610dc7565b11156127ff57602081519101fd5b6040517fd6bda275000000000000000000000000000000000000000000000000000000008152600490fdfea2646970667358221220681d5d3e4d7310de3672068eb87f7e302887f84da00b0444976283ae324d00da64736f6c63430008180033",
  "linkReferences": {},
  "deployedLinkReferences": {}
}